:0E00000014C0FECFFDCFFCCFFBCFFACFF9CF5F
:10000E00F8CFF7CFF6CFF5CFF4CFF3CFF2CFF1CFC6
:10001E00F0CFEFCFEECFEDCFECCFEBCFF894EE27C6
:10002E00ECBBF1E0FBBFEBBFE5BF8DE0A2E0BB2771
:10003E00ED938A95E9F780E092E0A0E6ED930197C3
:10004E00E9F7EFE5EDBFE2E0EEBFC0EED0E000C0B5
:10005E00EFEFEABBE0E0EBBBEFEFE7BBE0E0E8BBC6
:10006E00EFE0E4BBE0E0E5BBE1BBE2BBE3BFE2BF38
:10007E00ECBFEFBDEEBDEDBDECBDE7BDE6BDEBBD2E
:10008E00EABDE9BDE8BDE2BDE5BDE4BDE3BDE9BF46
:10009E00E5BFE4BFEAB9E0E8E8B9E0E0E0BFE6B901
:1000AE00EDB9E6BF44245524E0E85E1688F4E0E09E
:1000BE009699E1E06E2E772011F4662009F401C0C6
:1000CE004394762CA1E0B0E031D05BBA5394ECCFE0
:1000DE00A898A998AA98AB9848BAE2E04E1618F0DC
:1000EE00E5E0E41508F403C0A898A99A1DC0E6E05F
:1000FE004E1618F0EAE0E41508F403C0A89AA99881
:10010E0013C0EDE04E1618F0E3E1E41508F403C059
:10011E00AA98AB9A09C0ECE14E1618F0E4E2E41589
:10012E0008F402C0AA9AAB98BDCFFFCF109639F053
:10013E00A89588EE93E00197F1F71197C9F7089506
:00000001FF
