:0400000025C0FECF4A
:10000400FDCFFCCFFBCFFACFF9CFF8CFF7CFF6CFA8
:10001400F5CFF4CFF3CFF2CFF1CFF0CFEFCFEECFD8
:10002400EDCFECCFEBCF00003F065B4F666D7C0756
:100034007F6F0000010002002A000A00E0002C008B
:100044000200040036000000F894EE27ECBBF1E057
:10005400FBBFEBBFE5BFF8E1F1BDE1BD8DE0A2E080
:10006400BB27ED938A95E9F780E092E0A0E6ED9353
:100074000197E9F7E8E3F0E085919591009761F045
:10008400A591B59105901590BF01F00105900D92D1
:100094000197E1F7FB01F0CFEFE5EDBFE2E0EEBF42
:1000A400C0EED0E00DC0E881E066E7B983E08A9550
:1000B400F1F7369A349BFECF349AE5B12196089530
:1000C400E0E0EBBBEABBE5BBEFEFE4BBE0E0E2BBA7
:1000D400EFEFE1BBE8BBE0E0E7BBE3BFE2BFECBFAF
:1000E400EFBDEEBDEDBDECBDE7BDE6BDEBBDEABDCC
:1000F400E9BDE8BDE2BDE5BDE4BDE3BDE5BFE4BFE8
:10010400E9BFEAB9E0E8E8B9E0E0E0BFE0E6E7B972
:10011400E1E8E6B9E0B7EF7EE0BFE0E0EDB9E6BFC5
:10012400B09902C0E89401C0689420F821FE05C08B
:10013400A0E020FCA1E0A03009F009C0042C0528AF
:1001440021F4E1E0F0E02F0102C044245524A0E0B2
:1001540021FCA1E020FA21F8E0E0EA93A4DFF0E03A
:10016400ECD1CDD0A0E0B0E080EA90E44BD1A0E0A7
:10017400B0E088EC92E446D1DF01CB01E0E0F0E0AE
:1001840060E873E48DD182D03F01E1E0F0E0E41552
:10019400F505E9F4F30166277727B1D0A6E6B6E6BC
:1001A40086EE9FE32FD1A0E0B0E080E092E4DAD0C5
:1001B4006DD04F01E4E014D018D0E2E011D0C2D1E8
:1001C4001ED0E1E0E2BBD401E4E6F0E005C0E2E0E9
:1001D4001FD00BD0E1E01CD0B5D111D0A1CFFFCFFF
:1001E400E2BBD401EAE0F0E00895BFD1E052FF4F52
:1001F400E081E5BBE4EFF1E0FA93EA930EC0E0524C
:10020400FF4FE081E5BBE4EFF1E0FA93EA9305C028
:10021400E2BBD301EAE0F0E00895E991F991309668
:1002240039F08AEF90E00197F1F7A8953197C9F773
:100234000895552342F4503811F4E0FF04C0319678
:10024400691F791F6BF050E8572711F45F93C8C0FA
:100254005F3F31F0660F000C57956795752F089531
:100264005F9300200AF0C8C0C1C050E8192E1522BF
:10027400880F991F9527550F879550E8072E05225B
:10028400660F771F7527550F67950895689401C009
:10029400E8945F93F2DF703818F07F3F08F4A0C051
:1002A40056E1571BAAF4519558300EF4593030F0EA
:1002B400EFEFFFEF6FEF7FE777F91AC0772755234A
:1002C400B9F0EE0FFF1F661F771F5A95D1F710C0C4
:1002D4007727583028F0EF2FF62F672F5850F9CF93
:1002E400552331F076956795F795E7955A95D1F7AB
:1002F40000200AF41AD15F910895689401C0E8942B
:10030400309760407040B1F0002426F0772312F457
:1003140000940BD1172E7EE1112032F07A95EE0F66
:10032400FF1F661F111CF9CFEF2FF62F612D5F936E
:100334008ADF5F9108954F93AF01FD01DA01AB01AC
:10034400BC01CA01402D012C142E4F910895EA0FCF
:10035400FB1F681F0895E095F0956095EF5FFF4FD0
:100364006F4F08955F9381DF903839F1703821F130
:10037400572F591B2BF112F4DEDFFACF583118F046
:10038400AA27BB278827583028F0AB2FB82F8827F7
:100394005850F9CF552329F08695B795A7955A95C6
:1003A400D9F7502D512572F0D2DF38F46795F795BF
:1003B400E795739513F420C0BEDF45DF5F91089580
:1003C400D8F7FBCFEA1BFB0B680B51F010F4009439
:1003D400C2DF662392F3EE0FFF1F661F7A95CBF7F9
:1003E400EE27FF27662777275F910895EFEFFFEF4A
:1003F4006FE77FEF5F910895EFEFFFEF6FE77FE720
:100404005F9108955F9331DF703851F3903841F371
:1004140001240894791F23F41CF300203AF3ECCF51
:100424000F921F932F933F934F93112722279927BE
:10043400689FA0018F9F302D410D591F6B9F300D78
:10044400411D591F8E9F27D0BF9F25D06A9F23D05F
:10045400BE9F1DD0AF9F1BD0AE9F110D291F391F0A
:10046400491F591FE32FF42F652F522F4F913F91AE
:100474002F911F910F9066232AF0550FEE1FFF1F37
:10048400661F02C073954BF2D4DE5F910895100D80
:10049400211D391F02C0200D311D491F591F089508
:1004A4005F93E3DE703821F411200AF49FCFA4CFC8
:1004B400903809F495CF01240894970B1BF4D4F3D6
:1004C4000020F3CF792F1F932F933F934F93112441
:1004D4001127222733274427552790E2AE17BF0759
:1004E4008607410730F0AE1BBF0B860B410B089407
:1004F40001C08894551F221F331F111CAA1FBB1F44
:10050400881F441F9A9551F7F901612D4F913F912E
:100514002F911F91662332F0550FEE1FFF1F661FA8
:100524007A9543F286DE5F910895F0956095709513
:10053400E195FF4F6F4F7F4F08956F2F660F660B46
:10054400762F08950024112490E1AA0FBB1F001CEC
:10055400111C0E1A1F0A18F40E0E1F1E01C0A160F2
:100564009A9599F7FD01D0010895ECDFFD010895F6
:00000001FF
