:0E00000010C0FECFFDCFFCCFFBCFFACFF9CF63
:10000E00F8CFF7CFF6CFF5CFF4CFF3CFF2CFF1CFC6
:10001E00F0CFEFCFF894EE27ECBBE5BFF8E1F1BDE2
:10002E00E1BD8DE0A2E0BB27ED938A95E9F780E074
:10003E0092E0A0E6ED930197E9F7EFE5EDBFE2E080
:10004E00EEBFC0EED0E000C0E0E0EBBBEABBEFEFEE
:10005E00E8BBE7BBE0E0E5BBE4BBE2BBEFEFE1BB37
:10006E00E0E0E3BFE2BFEFBDEEBDEDBDECBDEBBD2D
:10007E00EABDE9BDE8BDE2BDE5BDE4BDE3BDEBBF54
:10008E00E5BFE9BFE0E8E8B9E0E0E6B9EDB9E8B30D
:10009E00EF5FE8BBE2B3E150E2BBEAEFF0E0FA93C8
:1000AE00EA9302D0F4CFFFCFE991F991309639F06F
:1000BE008AEF90E00197F1F7A8953197C9F7089567
:00000001FF
