:100000001DC0FECFFDCFFCCFFBCFFACFF9CFF8CF8D
:10001000F7CFF6CFF5CFF4CFF3CFF2CFF1CFF0CFCC
:10002000EFCF00003F065B4F666D7C077F6F0100DE
:10003000020022000A00E00024000000F894EE27ED
:10004000ECBBE5BFF8E1F1BDE1BD8DE0A2E0BB276F
:10005000ED938A95E9F780E092E0A0E6ED930197B1
:10006000E9F7EEE2F0E0C8953196802DC89531961B
:10007000902D0097B9F0C8953196A02DC89531966E
:10008000B02DC8953196102CC89531966E2F7F2FC4
:10009000F02DE12DC89531960D920197D9F7E62FF5
:1000A000F72FE1CFEFE5EDBFE2E0EEBFC0EED0E02D
:1000B00000C0E0E0EBBBEFEFEABBE0E0E5BBEFEF59
:1000C000E4BBE8BBE0E0E7BBE2BBEFEFE1BBE0E0B5
:1000D000E3BFE2BFEFBDEEBDEDBDECBDEBBDEABDE4
:1000E000E9BDE8BDE2BDE5BDE4BDE3BDEBBFE5BFF5
:1000F000E9BFE0E8E8B9E0E0E6B9EDB9B09902C0DF
:10010000E89401C0689420F820FC27C04394EAE0FA
:10011000E41551F444245394E51531F455246394C3
:10012000E6E0E61509F46624E8E2F0E0FA93EA93E3
:100130001BD0B09BE9CFB19B10C0B29903C044243F
:1001400055246624E42D0BD0E095E2BBE52D07D0C5
:10015000E5BBE62D04D0EBBBD7CFD0CFFFCFF0E08F
:10016000E052FF4FE0810895E991F991309639F01E
:100170008AEF90E00197F1F7A8953197C9F70895B4
:00000001FF
