:080000001DC0FECFFDCFFCCFB7
:10000800FBCFFACFF9CFF8CFF7CFF6CFF5CFF4CFB4
:10001800F3CFF2CFF1CFF0CFEFCFEECFEDCFECCFE4
:10002800EBCF3F065B4F666D7C077F6F0A00E000F1
:100038002A000000F894EE27ECBBF1E0FBBFEBBF11
:10004800E5BFF8E1F1BDE1BD8DE0A2E0BB27ED938E
:100058008A95E9F780E092E0A0E6ED930197E9F749
:10006800E4E3F0E085919591009761F0A591B59151
:1000780005901590BF01F00105900D920197E1F7E9
:10008800FB01F0CFEFE5EDBFE2E0EEBFC0EED0E060
:100098000DC0E881E066E7B983E08A95F1F7369A02
:1000A800349BFECF349AE5B121960895E0E0EBBB8E
:1000B800EABBE5BBEFEFE4BBE0E0E2BBEFEFE1BB9F
:1000C800E0E0E8BBE7BBE3BFE2BFECBFEFBDEEBDDE
:1000D800EDBDECBDE7BDE6BDEBBDEABDE9BDE8BDE4
:1000E800E2BDE5BDE4BDE3BDE5BFE4BFE9BFEAB9F4
:1000F800E0E8E8B9E0E0E0BFE0E6E7B9E1E8E6B962
:10010800E0B7EF7EE0BFE0E0EDB9E6BFE0E0EA93FC
:10011800C0DFA2E3EA9FF001DF01EFEFF0E047D094
:100128004E2EA42DB0E0EAE0F0E041D07E2EA42DC2
:10013800BB27EAE0F0E040D06E2EE72D0AD0909879
:10014800919A0DD0E62D05D0909A919808D0DECFDF
:10015800FFCFF0E0E052FF4FE081E5BB0895E1E01A
:10016800F0E0FA93EA9300C0E991F991309639F0FA
:100178008AEF90E00197F1F7A8953197C9F70895AC
:10018800F195E195F04008950024112490E1AA0F1B
:10019800BB1F001C111C0E1A1F0A18F40E0E1F1E7E
:1001A80001C0A1609A9599F7FD01D001089512D078
:1001B800EBDF0EF4E5DF0895E894B7FF04C0A095DF
:1001C800B09511966894F7FDDBDFDEDFFD010EF4D4
:1001D800D7DF0895E894F7FF02C0D2DF6894B7FF2D
:1001E80006C0A095B095119600F8039400FA0895FA
:00000001FF
