:080000001DC04BC055C0FCCF30
:10000800FBCFFACFF9CFF8CFF7CFF6CFF5CFF4CFB4
:10001800F3CFF2CFF1CFF0CFEFCFEECFEDCFECCFE4
:10002800EBCF3F065B4F666D7C077F6F0A00E000F1
:100038002A000000F894EE27ECBBF1E0FBBFEBBF11
:10004800E5BFF8E1F1BDE1BD8DE0A2E0BB27ED938E
:100058008A95E9F780E092E0A0E6ED930197E9F749
:10006800E4E3F0E085919591009761F0A591B59151
:1000780005901590BF01F00105900D920197E1F7E9
:10008800FB01F0CFEFE5EDBFE2E0EEBFC0EED0E060
:1000980024C05ED031962F01EAE0F0E0E415F505C2
:1000A80011F4442455240BC053D031972F01EFEF9E
:1000B800FFEFE415F50519F4E9E0F0E02F01E99107
:1000C800EFBFF991E991B991A991999189917991A4
:1000D8006991F990199009901895E0E0EBBBEABB9B
:1000E800E8BBEFEFE7BBE0E0E5BBE4BBE8E0E2BB81
:1000F800E0E0E1BBE3BFE2BFECBFEFBDEEBDEDBDAD
:10010800ECBDE7BDE6BDEBBDEABDE9BDE8BDE2BDBE
:10011800E5BDE4BDE3BDEBB7E06CEBBFEBE0E5BFED
:10012800E0E0E4BFE0ECEABFE0E0E9BFEAB9E0E81C
:10013800E8B9E0E0E0BFE6B9EDB9E6BF7894A0EE33
:10014800B0E0A40DB51DEC91E095E8BBF8CFFFCF6A
:100158000A921A92FA926A937A938A939A93AA9332
:10016800BA93EA93FA93EFB7EA93EAE0F0E0FA93E6
:10017800EA9302D0F2010895E991F991309639F0A5
:100188008AEF90E00197F1F7A8953197C9F708959C
:00000001FF
