:0C00000019C0FECFFDCFFCCFFBCFFACF24
:10000C00F9CFF8CFF7CFF6CFF5CFF4CFF3CFF2CFC0
:10001C00F1CFF0CFEFCF3F065B4F666D7C077F6F64
:10002C000A00E00022000000F894EE27ECBBE5BFCC
:10003C00F8E1F1BDE1BD8DE0A2E0BB27ED938A951F
:10004C00E9F780E092E0A0E6ED930197E9F7ECE2A6
:10005C00F0E0C8953196802DC8953196902D00977B
:10006C00B9F0C8953196A02DC8953196B02DC8958C
:10007C003196102CC89531966E2F7F2FF02DE12DD7
:10008C00C89531960D920197D9F7E62FF72FE1CF4E
:10009C00EFE5EDBFE2E0EEBFC0EED0E000C0EFEF69
:1000AC00EBBBEABBE0E0E8BBEFEFE7BBEFE0E5BBA7
:1000BC00E0E0E4BBEFE0E2BBE0E0E1BBE3BFE2BFCA
:1000CC00EFBDEEBDEDBDECBDEBBDEABDE9BDE8BDE0
:1000DC00E2BDE5BDE4BDE3BDEBBFE5BFE9BFE0E8D4
:1000EC00E8B9E0E0E6B9EDB9E0B3EF704E2EE3B35A
:1000FC00EF705E2EEAE04E1618F4E42D14D0E8BB37
:10010C00EAE04E1610F0E9E7E8BBEAE05E1620F4F0
:10011C00E52D09D0E095EBBBEAE05E1610F0E6E8C1
:10012C00EBBBE2CFFFCFF0E0E052FF4FE081089550
:00000001FF
