:020000001DC021
:10000200FECFFDCFFCCFFBCFFACFF9CFF8CFF7CFA2
:10001200F6CFF5CFF4CFF3CFF2CFF1CFF0CFEFCFD2
:1000220000003F065B4F666D7C077F6F0100020098
:1000320022000A00E00024000000F894EE27ECBB46
:10004200E5BFF8E1F1BDE1BD8DE0A2E0BB27ED9394
:100052008A95E9F780E092E0A0E6ED930197E9F74F
:10006200EEE2F0E0C8953196802DC8953196902D3C
:100072000097B9F0C8953196A02DC8953196B02D4C
:10008200C8953196102CC89531966E2F7F2FF02D82
:10009200E12DC89531960D920197D9F7E62FF72FEA
:1000A200E1CFEFE5EDBFE2E0EEBFC0EED0E000C091
:1000B200E0E0EBBBEABBE8BBEFEFE7BBE0E0E5BBB0
:1000C200E4BBEFEFE2BBE0E0E1BBE3BFE2BFEFBDC9
:1000D200EEBDEDBDECBDEBBDEABDE9BDE8BDE2BDE7
:1000E200E5BDE4BDE3BDEBBFE5BFE9BFE0E8E8B9CC
:1000F200E0E0E6B9EDB9809902C0E89401C06894E5
:1001020020F8A0E020FCA1E0A03011F421FC01C005
:1001120001C04394EAE0E41509F44424E42DF0E03C
:10012200E052FF4FE081E8BB20FA21F8E4CFFFCF95
:00000001FF
