:0C00000019C0FECFFDCFFCCFFBCFFACF24
:10000C00F9CFF8CFF7CFF6CFF5CFF4CFF3CFF2CFC0
:10001C00F1CFF0CFEFCFEECFEDCFECCFEBCF0000A9
:10002C00010002002A000000F894EE27ECBBF1E07E
:10003C00FBBFEBBFE5BF8DE0A2E0BB27ED938A953C
:10004C00E9F780E092E0A0E6ED930197E9F7ECE2A6
:10005C00F0E085919591009761F0A591B59105908F
:10006C001590BF01F00105900D920197E1F7FB018E
:10007C00F0CFEFE5EDBFE2E0EEBFC0EED0E000C0A8
:10008C00EFEFEABBE0E0EBBBEFEFE7BBE0E0E8BB98
:10009C00EFE0E4BBE0E0E5BBE1BBE2BBE3BFE2BF0A
:1000AC00ECBFEFBDEEBDEDBDECBDE7BDE6BDEBBD00
:1000BC00EABDE9BDE8BDE2BDE5BDE4BDE3BDE9BF18
:1000CC00E5BFE4BFEAB9E0E8E8B9E0E0E0BFE6B9D3
:1000DC00EDB9E6BF44245524E0E85E1690F4E894AC
:1000EC008699689421F820FC02C021FC01C001C053
:1000FC00439421FA20F85BBAA1E0B0E04FD05394BE
:10010C00EBCFEFEFE8BB48BAE2E04E1618F0E5E0B3
:10011C00E41508F403C0E1E06E2E1FC0E6E04E16B5
:10012C0018F0EAE0E41508F403C0E2E06E2E15C006
:10013C00EDE04E1618F0E3E1E41508F403C0E3E03B
:10014C006E2E0BC0ECE14E1618F0E4E2E41508F448
:10015C0003C0E4E06E2E01C066247614E1F4E62DB3
:10016C00F0E0E130A0E0FA0711F4E1E013C0E23076
:10017C00A0E0FA0711F4E4E00DC0E330A0E0FA07C8
:10018C0011F4E5E007C0E430A0E0FA0711F4EAE06E
:10019C0001C0EFEFE5BB762C9DCFFFCF109639F069
:1001AC00A89588EE93E00197F1F71197C9F7089598
:00000001FF
