:0400000010C0FECF5F
:10000400FDCFFCCFFBCFFACFF9CFF8CFF7CFF6CFA8
:10001400F5CFF4CFF3CFF2CFF1CFF0CFEFCFF89409
:10002400EE27ECBBE5BFF8E1F1BDE1BD8DE0A2E058
:10003400BB27ED938A95E9F780E092E0A0E6ED9383
:100044000197E9F7EFE5EDBFE2E0EEBFC0EED0E0E7
:1000540000C0E0E0EBBBEABBEFEFE8BBE0E0E7BBEE
:10006400E5BBE4BBE2BBEFEFE1BBE0E0E3BFE2BF33
:10007400EFBDEEBDEDBDECBDEBBDEABDE9BDE8BD38
:10008400E2BDE5BDE4BDE3BDEBBFE5BFE9BFE0E82C
:10009400E8B9E0E0E6B9EDB9E6B3E2BBFDCFFFCFE6
:00000001FF
