:0600000015C0FECFFDCF8C
:10000600FCCFFBCFFACFF9CFF8CFF7CFF6CFF5CFAE
:10001600F4CFF3CFF2CFF1CFF0CFEFCF0000010056
:10002600020022000000F894EE27ECBBE5BFF8E1E1
:10003600F1BDE1BD8DE0A2E0BB27ED938A95E9F71E
:1000460080E092E0A0E6ED930197E9F7E4E2F0E0C4
:10005600C8953196802DC8953196902D0097B9F0A8
:10006600C8953196A02DC8953196B02DC895319674
:10007600102CC89531966E2F7F2FF02DE12DC89547
:1000860031960D920197D9F7E62FF72FE1CFEFE5DD
:10009600EDBFE2E0EEBFC0EED0E000C0E0E0EBBBBB
:1000A600EABBE8BBEFEFE7BBE5BBE0E0E4BBEFEFA5
:1000B600E2BBE0E0E1BBE3BFE2BFEFBDEEBDEDBDFD
:1000C600ECBDEBBDEABDE9BDE8BDE2BDE5BDE4BD05
:1000D600E3BDEBBFE5BFE9BFE0E8E8B9E0E0E6B9BC
:1000E600EDB9989902C0689401C0E89420F89999EE
:1000F60002C0689401C0E89421F8869902C0689409
:1001060001C0E89422F8859902C0689401C0E89479
:1001160023F820FE05C0B09A1BD0B09819D016C09F
:1001260021FE05C0B09A19D0B09817D00FC022FE94
:1001360005C0B09A17D0B09815D008C023FE05C0E8
:10014600B09A15D0B09813D001C0B098CACFFFCFDF
:10015600E2E0F0E0FA93EA930FC0E4E0F0E0FA930D
:10016600EA930AC0E8E0F0E0FA93EA9305C0E0E11A
:10017600F0E0FA93EA9300C0E991F991309639F0EC
:1001860088EE93E00197F1F7A8953197C9F708959E
:00000001FF
