:0E00000019C0FECFFDCFFCCFFBCFFACFF9CF5A
:10000E00F8CFF7CFF6CFF5CFF4CFF3CFF2CFF1CFC6
:10001E00F0CFEFCF3F065B4F666D7C077F6F0A0018
:10002E00E00022000000F894EE27ECBBE5BFF8E1FB
:10003E00F1BDE1BD8DE0A2E0BB27ED938A95E9F716
:10004E0080E092E0A0E6ED930197E9F7ECE2F0E0B4
:10005E00C8953196802DC8953196902D0097B9F0A0
:10006E00C8953196A02DC8953196B02DC89531966C
:10007E00102CC89531966E2F7F2FF02DE12DC8953F
:10008E0031960D920197D9F7E62FF72FE1CFEFE5D5
:10009E00EDBFE2E0EEBFC0EED0E000C0E0E0EBBBB3
:1000AE00EABBE2BBE1BBEFEFE4BBE0E0E5BBEFE0B8
:1000BE00E7BBEFEFE8BBE0E0E3BFE2BFEFBDEEBDB5
:1000CE00EDBDECBDEBBDEABDE9BDE8BDE2BDE5BDF4
:1000DE00E4BDE3BDEBBFE5BFE9BFE0E8E8B9E0E0B2
:1000EE00E6B9EDB985D0C098C19A88D021F4B59BF8
:1000FE0002C0B69901C003C0E091E100E5BBB49B1C
:10010E0004C082D011F4B69901C003C0E091E200A0
:10011E00E5BBB49B04C0B59B02C07BD009F003C005
:10012E00E091E300E5BBB49B04C0B59B02C0B69959
:10013E0001C001C0439472D0C09AC1985FD021F41F
:10014E00B59B02C0B69901C003C0E091E400E5BBC7
:10015E00B49B04C059D011F4B69901C003C0E0910C
:10016E00E500E5BBB49B04C0B59B02C052D009F0BC
:10017E0003C0E091E600E5BBB49B04C0B59B02C092
:10018E00B69901C001C0439449D0C09AC19AC29891
:10019E00A0E0B499A1E0A03021F4B59B02C0B699BD
:1001AE0001C003C0E091E700E5BBB49B04C02CD0B6
:1001BE0011F4B69901C003C0E091E800E5BBB49B11
:1001CE0004C0B59B02C025D009F003C0E091E90040
:1001DE00E5BBB49B04C0B59B02C0B69901C001C07B
:1001EE004394E8E2F0E0FA93EA931ED07BCFFFCF80
:1001FE004424E8E2F0E0FA93EA9316C0C29AA0E033
:10020E00B499A1E0A0300895A0E0B599A1E0A03086
:10021E000895A0E0B699A1E0A0300895E8E2F0E0DC
:10022E00FA93EA9301D0E4CFE991F991309639F03F
:10023E008AEF90E00197F1F7A8953197C9F70895E5
:00000001FF
